{
  "_format": "hh-sol-artifact-1",
  "contractName": "VotingEngine",
  "sourceName": "contracts/VotingEngine.sol",
  "abi": [
    {
      "inputs": [
        {
          "internalType": "uint256[]",
          "name": "proposalIds",
          "type": "uint256[]"
        }
      ],
      "name": "createVoting",
      "outputs": [
        {
          "internalType": "uint256",
          "name": "_id",
          "type": "uint256"
        }
      ],
      "stateMutability": "payable",
      "type": "function"
    },
    {
      "inputs": [
        {
          "internalType": "uint256",
          "name": "idVoting",
          "type": "uint256"
        }
      ],
      "name": "endVoting",
      "outputs": [],
      "stateMutability": "payable",
      "type": "function"
    },
    {
      "inputs": [
        {
          "internalType": "uint256",
          "name": "id",
          "type": "uint256"
        }
      ],
      "name": "getVotingInfo",
      "outputs": [
        {
          "internalType": "uint256",
          "name": "",
          "type": "uint256"
        },
        {
          "internalType": "uint256[]",
          "name": "",
          "type": "uint256[]"
        },
        {
          "internalType": "enum VotingEngine.VotingState",
          "name": "",
          "type": "uint8"
        },
        {
          "internalType": "int256",
          "name": "",
          "type": "int256"
        }
      ],
      "stateMutability": "view",
      "type": "function"
    },
    {
      "inputs": [],
      "name": "getVotingsList",
      "outputs": [
        {
          "internalType": "uint256[]",
          "name": "",
          "type": "uint256[]"
        }
      ],
      "stateMutability": "view",
      "type": "function"
    },
    {
      "inputs": [
        {
          "internalType": "uint256",
          "name": "idVoting",
          "type": "uint256"
        }
      ],
      "name": "getWinningProposal",
      "outputs": [
        {
          "internalType": "int256",
          "name": "",
          "type": "int256"
        }
      ],
      "stateMutability": "view",
      "type": "function"
    },
    {
      "inputs": [
        {
          "internalType": "uint256",
          "name": "votingId",
          "type": "uint256"
        },
        {
          "internalType": "uint256",
          "name": "proposalId",
          "type": "uint256"
        }
      ],
      "name": "vote",
      "outputs": [],
      "stateMutability": "payable",
      "type": "function"
    },
    {
      "inputs": [
        {
          "internalType": "uint256",
          "name": "",
          "type": "uint256"
        }
      ],
      "name": "voteCountByProposal",
      "outputs": [
        {
          "internalType": "uint256",
          "name": "",
          "type": "uint256"
        }
      ],
      "stateMutability": "view",
      "type": "function"
    },
    {
      "inputs": [
        {
          "internalType": "uint256",
          "name": "",
          "type": "uint256"
        }
      ],
      "name": "votings",
      "outputs": [
        {
          "internalType": "uint256",
          "name": "votingId",
          "type": "uint256"
        },
        {
          "internalType": "enum VotingEngine.VotingState",
          "name": "state",
          "type": "uint8"
        },
        {
          "internalType": "int256",
          "name": "winningProposal",
          "type": "int256"
        },
        {
          "internalType": "uint256",
          "name": "winningVoteCount",
          "type": "uint256"
        }
      ],
      "stateMutability": "view",
      "type": "function"
    },
    {
      "inputs": [],
      "name": "votingsNumber",
      "outputs": [
        {
          "internalType": "uint256",
          "name": "",
          "type": "uint256"
        }
      ],
      "stateMutability": "view",
      "type": "function"
    }
  ],
  "bytecode": "0x608060405234801561001057600080fd5b506113a1806100206000396000f3fe6080604052600436106100865760003560e01c8063649f89a511610059578063649f89a514610170578063a598d03c1461018c578063b384abef146101cc578063f2745ab1146101e8578063f301f1041461021357610086565b8063248a06341461008b578063292ca166146100cb57806341a02a2f14610108578063524dbe8c14610145575b600080fd5b34801561009757600080fd5b506100b260048036038101906100ad9190610c55565b610243565b6040516100c29493929190610ddf565b60405180910390f35b3480156100d757600080fd5b506100f260048036038101906100ed9190610c55565b610368565b6040516100ff9190610e2b565b60405180910390f35b34801561011457600080fd5b5061012f600480360381019061012a9190610c55565b6104f5565b60405161013c9190610e46565b60405180910390f35b34801561015157600080fd5b5061015a61050d565b6040516101679190610e61565b60405180910390f35b61018a60048036038101906101859190610c55565b610693565b005b34801561019857600080fd5b506101b360048036038101906101ae9190610c55565b6107c0565b6040516101c39493929190610e83565b60405180910390f35b6101e660048036038101906101e19190610ec8565b61080d565b005b3480156101f457600080fd5b506101fd6109e7565b60405161020a9190610e46565b60405180910390f35b61022d60048036038101906102289190611061565b6109ed565b60405161023a9190610e46565b60405180910390f35b600060606000806000600186815481106102605761025f6110aa565b5b90600052602060002090600502016040518060a001604052908160008201548152602001600182018054806020026020016040519081016040528092919081815260200182805480156102d257602002820191906000526020600020905b8154815260200190600101908083116102be575b505050505081526020016002820160009054906101000a900460ff166004811115610300576102ff610d4f565b5b600481111561031257610311610d4f565b5b815260200160038201548152602001600482015481525050905060008160000151905060008260200151905060008360400151905060008460600151905083838383985098509850985050505050509193509193565b6000806001838154811061037f5761037e6110aa565b5b90600052602060002090600502016040518060a001604052908160008201548152602001600182018054806020026020016040519081016040528092919081815260200182805480156103f157602002820191906000526020600020905b8154815260200190600101908083116103dd575b505050505081526020016002820160009054906101000a900460ff16600481111561041f5761041e610d4f565b5b600481111561043157610430610d4f565b5b81526020016003820154815260200160048201548152505090506003600481111561045f5761045e610d4f565b5b8160400151600481111561047657610475610d4f565b5b14806104a957506004808111156104905761048f610d4f565b5b816040015160048111156104a7576104a6610d4f565b5b145b6104e8576040517f08c379a00000000000000000000000000000000000000000000000000000000081526004016104df90611136565b60405180910390fd5b8060600151915050919050565b60026020528060005260406000206000915090505481565b6060600060018054905067ffffffffffffffff8111156105305761052f610f1e565b5b60405190808252806020026020018201604052801561055e5781602001602082028036833780820191505090505b50905060005b60018054905081101561068b57600060018281548110610587576105866110aa565b5b90600052602060002090600502016040518060a001604052908160008201548152602001600182018054806020026020016040519081016040528092919081815260200182805480156105f957602002820191906000526020600020905b8154815260200190600101908083116105e5575b505050505081526020016002820160009054906101000a900460ff16600481111561062757610626610d4f565b5b600481111561063957610638610d4f565b5b8152602001600382015481526020016004820154815250509050806000015183838151811061066b5761066a6110aa565b5b60200260200101818152505050808061068390611185565b915050610564565b508091505090565b6000600182815481106106a9576106a86110aa565b5b90600052602060002090600502019050600060048111156106cd576106cc610d4f565b5b8160020160009054906101000a900460ff1660048111156106f1576106f0610d4f565b5b03610731576040517f08c379a00000000000000000000000000000000000000000000000000000000081526004016107289061123f565b60405180910390fd5b7fffffffffffffffffffffffffffffffffffffffffffffffffffffffffffffffff81600301541461078e5760038160020160006101000a81548160ff0219169083600481111561078457610783610d4f565b5b02179055506107bc565b60048160020160006101000a81548160ff021916908360048111156107b6576107b5610d4f565b5b02179055505b5050565b600181815481106107d057600080fd5b90600052602060002090600502016000915090508060000154908060020160009054906101000a900460ff16908060030154908060040154905084565b600060018381548110610823576108226110aa565b5b906000526020600020906005020190506003600481111561084757610846610d4f565b5b8160020160009054906101000a900460ff16600481111561086b5761086a610d4f565b5b1415806108ad575060048081111561088657610885610d4f565b5b8160020160009054906101000a900460ff1660048111156108aa576108a9610d4f565b5b14155b6108ec576040517f08c379a00000000000000000000000000000000000000000000000000000000081526004016108e3906112ab565b60405180910390fd5b600060026000848152602001908152602001600020549050600060018261091391906112cb565b9050806002600086815260200190815260200160002081905550826004015481111561097d5783836003018190555080836004018190555060018360020160006101000a81548160ff0219169083600481111561097357610972610d4f565b5b02179055506109e0565b826004015481036109df577fffffffffffffffffffffffffffffffffffffffffffffffffffffffffffffffff836003018190555060028360020160006101000a81548160ff021916908360048111156109d9576109d8610d4f565b5b02179055505b5b5050505050565b60005481565b600080825111610a32576040517f08c379a0000000000000000000000000000000000000000000000000000000008152600401610a299061134b565b60405180910390fd5b6000806000815480929190610a4690611185565b91905055905060016040518060a0016040528083815260200185815260200160006004811115610a7957610a78610d4f565b5b81526020017fffffffffffffffffffffffffffffffffffffffffffffffffffffffffffffffff815260200160008152509080600181540180825580915050600190039060005260206000209060050201600090919091909150600082015181600001556020820151816001019080519060200190610af8929190610ba1565b5060408201518160020160006101000a81548160ff02191690836004811115610b2457610b23610d4f565b5b02179055506060820151816003015560808201518160040155505060005b8351811015610b97576000848281518110610b6057610b5f6110aa565b5b6020026020010151905060006002600083815260200190815260200160002081905550508080610b8f90611185565b915050610b42565b5080915050919050565b828054828255906000526020600020908101928215610bdd579160200282015b82811115610bdc578251825591602001919060010190610bc1565b5b509050610bea9190610bee565b5090565b5b80821115610c07576000816000905550600101610bef565b5090565b6000604051905090565b600080fd5b600080fd5b6000819050919050565b610c3281610c1f565b8114610c3d57600080fd5b50565b600081359050610c4f81610c29565b92915050565b600060208284031215610c6b57610c6a610c15565b5b6000610c7984828501610c40565b91505092915050565b610c8b81610c1f565b82525050565b600081519050919050565b600082825260208201905092915050565b6000819050602082019050919050565b610cc681610c1f565b82525050565b6000610cd88383610cbd565b60208301905092915050565b6000602082019050919050565b6000610cfc82610c91565b610d068185610c9c565b9350610d1183610cad565b8060005b83811015610d42578151610d298882610ccc565b9750610d3483610ce4565b925050600181019050610d15565b5085935050505092915050565b7f4e487b7100000000000000000000000000000000000000000000000000000000600052602160045260246000fd5b60058110610d8f57610d8e610d4f565b5b50565b6000819050610da082610d7e565b919050565b6000610db082610d92565b9050919050565b610dc081610da5565b82525050565b6000819050919050565b610dd981610dc6565b82525050565b6000608082019050610df46000830187610c82565b8181036020830152610e068186610cf1565b9050610e156040830185610db7565b610e226060830184610dd0565b95945050505050565b6000602082019050610e406000830184610dd0565b92915050565b6000602082019050610e5b6000830184610c82565b92915050565b60006020820190508181036000830152610e7b8184610cf1565b905092915050565b6000608082019050610e986000830187610c82565b610ea56020830186610db7565b610eb26040830185610dd0565b610ebf6060830184610c82565b95945050505050565b60008060408385031215610edf57610ede610c15565b5b6000610eed85828601610c40565b9250506020610efe85828601610c40565b9150509250929050565b600080fd5b6000601f19601f8301169050919050565b7f4e487b7100000000000000000000000000000000000000000000000000000000600052604160045260246000fd5b610f5682610f0d565b810181811067ffffffffffffffff82111715610f7557610f74610f1e565b5b80604052505050565b6000610f88610c0b565b9050610f948282610f4d565b919050565b600067ffffffffffffffff821115610fb457610fb3610f1e565b5b602082029050602081019050919050565b600080fd5b6000610fdd610fd884610f99565b610f7e565b9050808382526020820190506020840283018581111561100057610fff610fc5565b5b835b8181101561102957806110158882610c40565b845260208401935050602081019050611002565b5050509392505050565b600082601f83011261104857611047610f08565b5b8135611058848260208601610fca565b91505092915050565b60006020828403121561107757611076610c15565b5b600082013567ffffffffffffffff81111561109557611094610c1a565b5b6110a184828501611033565b91505092915050565b7f4e487b7100000000000000000000000000000000000000000000000000000000600052603260045260246000fd5b600082825260208201905092915050565b7f566f74696e67206973206e6f742066696e697368656420796574000000000000600082015250565b6000611120601a836110d9565b915061112b826110ea565b602082019050919050565b6000602082019050818103600083015261114f81611113565b9050919050565b7f4e487b7100000000000000000000000000000000000000000000000000000000600052601160045260246000fd5b600061119082610c1f565b91507fffffffffffffffffffffffffffffffffffffffffffffffffffffffffffffffff82036111c2576111c1611156565b5b600182019050919050565b7f43616e27742066696e69736820766f74696e672062656361757365206e6f206f60008201527f6e6520766f746564207965740000000000000000000000000000000000000000602082015250565b6000611229602c836110d9565b9150611234826111cd565b604082019050919050565b600060208201905081810360008301526112588161121c565b9050919050565b7f566f74696e6720697320616c72656164792066696e6973686564000000000000600082015250565b6000611295601a836110d9565b91506112a08261125f565b602082019050919050565b600060208201905081810360008301526112c481611288565b9050919050565b60006112d682610c1f565b91506112e183610c1f565b92508282019050808211156112f9576112f8611156565b5b92915050565b7f50726f706f73616c732061727261792063616e277420626520656d7074790000600082015250565b6000611335601e836110d9565b9150611340826112ff565b602082019050919050565b6000602082019050818103600083015261136481611328565b905091905056fea264697066735822122067e3d6ccabb97ee688bfd3580f1ed150bded55b86658347bf640a9d368589b4064736f6c63430008120033",
  "linkReferences": {},
  "deployedLinkReferences": {}
}