{
  "_format": "hh-sol-artifact-1",
  "contractName": "VotingEngine",
  "sourceName": "contracts/VotingEngine.sol",
  "abi": [
    {
      "inputs": [
        {
          "internalType": "string",
          "name": "str1",
          "type": "string"
        },
        {
          "internalType": "string",
          "name": "str2",
          "type": "string"
        }
      ],
      "name": "compare",
      "outputs": [
        {
          "internalType": "bool",
          "name": "",
          "type": "bool"
        }
      ],
      "stateMutability": "pure",
      "type": "function"
    },
    {
      "inputs": [
        {
          "internalType": "string[]",
          "name": "proposalIds",
          "type": "string[]"
        }
      ],
      "name": "createVoting",
      "outputs": [
        {
          "internalType": "uint256",
          "name": "_id",
          "type": "uint256"
        }
      ],
      "stateMutability": "payable",
      "type": "function"
    },
    {
      "inputs": [
        {
          "internalType": "uint256",
          "name": "idVoting",
          "type": "uint256"
        }
      ],
      "name": "endVoting",
      "outputs": [],
      "stateMutability": "payable",
      "type": "function"
    },
    {
      "inputs": [
        {
          "internalType": "uint256",
          "name": "idVoting",
          "type": "uint256"
        }
      ],
      "name": "getProposalIds",
      "outputs": [
        {
          "internalType": "string[]",
          "name": "",
          "type": "string[]"
        }
      ],
      "stateMutability": "view",
      "type": "function"
    },
    {
      "inputs": [
        {
          "internalType": "uint256",
          "name": "id",
          "type": "uint256"
        }
      ],
      "name": "getVotingInfo",
      "outputs": [
        {
          "internalType": "uint256",
          "name": "",
          "type": "uint256"
        },
        {
          "internalType": "enum VotingEngine.VotingState",
          "name": "",
          "type": "uint8"
        },
        {
          "internalType": "string",
          "name": "",
          "type": "string"
        }
      ],
      "stateMutability": "view",
      "type": "function"
    },
    {
      "inputs": [],
      "name": "getVotingsList",
      "outputs": [
        {
          "internalType": "uint256[]",
          "name": "",
          "type": "uint256[]"
        }
      ],
      "stateMutability": "view",
      "type": "function"
    },
    {
      "inputs": [
        {
          "internalType": "uint256",
          "name": "idVoting",
          "type": "uint256"
        }
      ],
      "name": "getWinningProposal",
      "outputs": [
        {
          "internalType": "string",
          "name": "",
          "type": "string"
        }
      ],
      "stateMutability": "view",
      "type": "function"
    },
    {
      "inputs": [
        {
          "internalType": "uint256",
          "name": "votingId",
          "type": "uint256"
        },
        {
          "internalType": "string",
          "name": "proposalId",
          "type": "string"
        }
      ],
      "name": "vote",
      "outputs": [],
      "stateMutability": "payable",
      "type": "function"
    },
    {
      "inputs": [
        {
          "internalType": "string",
          "name": "",
          "type": "string"
        }
      ],
      "name": "voteCountByProposal",
      "outputs": [
        {
          "internalType": "uint256",
          "name": "",
          "type": "uint256"
        }
      ],
      "stateMutability": "view",
      "type": "function"
    },
    {
      "inputs": [
        {
          "internalType": "uint256",
          "name": "",
          "type": "uint256"
        }
      ],
      "name": "votings",
      "outputs": [
        {
          "internalType": "uint256",
          "name": "votingId",
          "type": "uint256"
        },
        {
          "internalType": "enum VotingEngine.VotingState",
          "name": "state",
          "type": "uint8"
        },
        {
          "internalType": "string",
          "name": "winningProposal",
          "type": "string"
        },
        {
          "internalType": "uint256",
          "name": "winningVoteCount",
          "type": "uint256"
        }
      ],
      "stateMutability": "view",
      "type": "function"
    },
    {
      "inputs": [],
      "name": "votingsNumber",
      "outputs": [
        {
          "internalType": "uint256",
          "name": "",
          "type": "uint256"
        }
      ],
      "stateMutability": "view",
      "type": "function"
    }
  ],
  "bytecode": "0x608060405234801561001057600080fd5b506121d9806100206000396000f3fe60806040526004361061009c5760003560e01c8063649f89a511610064578063649f89a5146101a15780639a78a73a146101bd578063a598d03c146101fa578063ba5380431461023a578063bba2aac11461026a578063f2745ab1146102a75761009c565b806324108475146100a1578063248a0634146100bd578063292ca166146100fc5780633a96fdd714610139578063524dbe8c14610176575b600080fd5b6100bb60048036038101906100b69190611539565b6102d2565b005b3480156100c957600080fd5b506100e460048036038101906100df9190611595565b6104c3565b6040516100f3939291906116c7565b60405180910390f35b34801561010857600080fd5b50610123600480360381019061011e9190611595565b6106e2565b6040516101309190611705565b60405180910390f35b34801561014557600080fd5b50610160600480360381019061015b9190611727565b610979565b60405161016d91906117ba565b60405180910390f35b34801561018257600080fd5b5061018b6109d2565b6040516101989190611893565b60405180910390f35b6101bb60048036038101906101b69190611595565b610c61565b005b3480156101c957600080fd5b506101e460048036038101906101df9190611595565b610e0c565b6040516101f191906119c1565b60405180910390f35b34801561020657600080fd5b50610221600480360381019061021c9190611595565b61100c565b60405161023194939291906119e3565b60405180910390f35b610254600480360381019061024f9190611b15565b6110e1565b6040516102619190611b5e565b60405180910390f35b34801561027657600080fd5b50610291600480360381019061028c9190611b79565b61129b565b60405161029e9190611b5e565b60405180910390f35b3480156102b357600080fd5b506102bc6112c9565b6040516102c99190611b5e565b60405180910390f35b6000600183815481106102e8576102e7611bc2565b5b906000526020600020906005020190506003600481111561030c5761030b6115d1565b5b8160020160009054906101000a900460ff1660048111156103305761032f6115d1565b5b141580610372575060048081111561034b5761034a6115d1565b5b8160020160009054906101000a900460ff16600481111561036f5761036e6115d1565b5b14155b6103b1576040517f08c379a00000000000000000000000000000000000000000000000000000000081526004016103a890611c3d565b60405180910390fd5b60006002836040516103c39190611c99565b908152602001604051809103902054905060006001826103e39190611cdf565b9050806002856040516103f69190611c99565b908152602001604051809103902081905550826004015481111561046157838360030190816104259190611f1f565b5080836004018190555060018360020160006101000a81548160ff02191690836004811115610457576104566115d1565b5b02179055506104bc565b826004015481036104bb576040518060200160405280600081525083600301908161048c9190611f1f565b5060028360020160006101000a81548160ff021916908360048111156104b5576104b46115d1565b5b02179055505b5b5050505050565b60008060606000600185815481106104de576104dd611bc2565b5b90600052602060002090600502016040518060a00160405290816000820154815260200160018201805480602002602001604051908101604052809291908181526020016000905b828210156105d257838290600052602060002001805461054590611d42565b80601f016020809104026020016040519081016040528092919081815260200182805461057190611d42565b80156105be5780601f10610593576101008083540402835291602001916105be565b820191906000526020600020905b8154815290600101906020018083116105a157829003601f168201915b505050505081526020019060010190610526565b5050505081526020016002820160009054906101000a900460ff1660048111156105ff576105fe6115d1565b5b6004811115610611576106106115d1565b5b815260200160038201805461062590611d42565b80601f016020809104026020016040519081016040528092919081815260200182805461065190611d42565b801561069e5780601f106106735761010080835404028352916020019161069e565b820191906000526020600020905b81548152906001019060200180831161068157829003601f168201915b505050505081526020016004820154815250509050600081600001519050600082604001519050600083606001519050828282965096509650505050509193909250565b60606000600183815481106106fa576106f9611bc2565b5b90600052602060002090600502016040518060a00160405290816000820154815260200160018201805480602002602001604051908101604052809291908181526020016000905b828210156107ee57838290600052602060002001805461076190611d42565b80601f016020809104026020016040519081016040528092919081815260200182805461078d90611d42565b80156107da5780601f106107af576101008083540402835291602001916107da565b820191906000526020600020905b8154815290600101906020018083116107bd57829003601f168201915b505050505081526020019060010190610742565b5050505081526020016002820160009054906101000a900460ff16600481111561081b5761081a6115d1565b5b600481111561082d5761082c6115d1565b5b815260200160038201805461084190611d42565b80601f016020809104026020016040519081016040528092919081815260200182805461086d90611d42565b80156108ba5780601f1061088f576101008083540402835291602001916108ba565b820191906000526020600020905b81548152906001019060200180831161089d57829003601f168201915b505050505081526020016004820154815250509050600360048111156108e3576108e26115d1565b5b816040015160048111156108fa576108f96115d1565b5b148061092d5750600480811115610914576109136115d1565b5b8160400151600481111561092b5761092a6115d1565b5b145b61096c576040517f08c379a00000000000000000000000000000000000000000000000000000000081526004016109639061203d565b60405180910390fd5b8060600151915050919050565b60008160405160200161098c9190611c99565b60405160208183030381529060405280519060200120836040516020016109b39190611c99565b6040516020818303038152906040528051906020012014905092915050565b6060600060018054905067ffffffffffffffff8111156109f5576109f461140e565b5b604051908082528060200260200182016040528015610a235781602001602082028036833780820191505090505b50905060005b600180549050811015610c5957600060018281548110610a4c57610a4b611bc2565b5b90600052602060002090600502016040518060a00160405290816000820154815260200160018201805480602002602001604051908101604052809291908181526020016000905b82821015610b40578382906000526020600020018054610ab390611d42565b80601f0160208091040260200160405190810160405280929190818152602001828054610adf90611d42565b8015610b2c5780601f10610b0157610100808354040283529160200191610b2c565b820191906000526020600020905b815481529060010190602001808311610b0f57829003601f168201915b505050505081526020019060010190610a94565b5050505081526020016002820160009054906101000a900460ff166004811115610b6d57610b6c6115d1565b5b6004811115610b7f57610b7e6115d1565b5b8152602001600382018054610b9390611d42565b80601f0160208091040260200160405190810160405280929190818152602001828054610bbf90611d42565b8015610c0c5780601f10610be157610100808354040283529160200191610c0c565b820191906000526020600020905b815481529060010190602001808311610bef57829003601f168201915b5050505050815260200160048201548152505090508060000151838381518110610c3957610c38611bc2565b5b602002602001018181525050508080610c519061205d565b915050610a29565b508091505090565b600060018281548110610c7757610c76611bc2565b5b9060005260206000209060050201905060006004811115610c9b57610c9a6115d1565b5b8160020160009054906101000a900460ff166004811115610cbf57610cbe6115d1565b5b03610cff576040517f08c379a0000000000000000000000000000000000000000000000000000000008152600401610cf690612117565b60405180910390fd5b610da4816003018054610d1190611d42565b80601f0160208091040260200160405190810160405280929190818152602001828054610d3d90611d42565b8015610d8a5780601f10610d5f57610100808354040283529160200191610d8a565b820191906000526020600020905b815481529060010190602001808311610d6d57829003601f168201915b505050505060405180602001604052806000815250610979565b610dda5760038160020160006101000a81548160ff02191690836004811115610dd057610dcf6115d1565b5b0217905550610e08565b60048160020160006101000a81548160ff02191690836004811115610e0257610e016115d1565b5b02179055505b5050565b6060600060018381548110610e2457610e23611bc2565b5b90600052602060002090600502016040518060a00160405290816000820154815260200160018201805480602002602001604051908101604052809291908181526020016000905b82821015610f18578382906000526020600020018054610e8b90611d42565b80601f0160208091040260200160405190810160405280929190818152602001828054610eb790611d42565b8015610f045780601f10610ed957610100808354040283529160200191610f04565b820191906000526020600020905b815481529060010190602001808311610ee757829003601f168201915b505050505081526020019060010190610e6c565b5050505081526020016002820160009054906101000a900460ff166004811115610f4557610f446115d1565b5b6004811115610f5757610f566115d1565b5b8152602001600382018054610f6b90611d42565b80601f0160208091040260200160405190810160405280929190818152602001828054610f9790611d42565b8015610fe45780601f10610fb957610100808354040283529160200191610fe4565b820191906000526020600020905b815481529060010190602001808311610fc757829003601f168201915b5050505050815260200160048201548152505090506000816020015190508092505050919050565b6001818154811061101c57600080fd5b90600052602060002090600502016000915090508060000154908060020160009054906101000a900460ff169080600301805461105890611d42565b80601f016020809104026020016040519081016040528092919081815260200182805461108490611d42565b80156110d15780601f106110a6576101008083540402835291602001916110d1565b820191906000526020600020905b8154815290600101906020018083116110b457829003601f168201915b5050505050908060040154905084565b600080825111611126576040517f08c379a000000000000000000000000000000000000000000000000000000000815260040161111d90612183565b60405180910390fd5b600080600081548092919061113a9061205d565b91905055905060016040518060a001604052808381526020018581526020016000600481111561116d5761116c6115d1565b5b8152602001604051806020016040528060008152508152602001600081525090806001815401808255809150506001900390600052602060002090600502016000909190919091506000820151816000015560208201518160010190805190602001906111db9291906112cf565b5060408201518160020160006101000a81548160ff02191690836004811115611207576112066115d1565b5b021790555060608201518160030190816112219190611f1f565b5060808201518160040155505060005b835181101561129157600084828151811061124f5761124e611bc2565b5b60200260200101519050600060028260405161126b9190611c99565b9081526020016040518091039020819055505080806112899061205d565b915050611231565b5080915050919050565b6002818051602081018201805184825260208301602085012081835280955050505050506000915090505481565b60005481565b828054828255906000526020600020908101928215611317579160200282015b828111156113165782518290816113069190611f1f565b50916020019190600101906112ef565b5b5090506113249190611328565b5090565b5b80821115611348576000818161133f919061134c565b50600101611329565b5090565b50805461135890611d42565b6000825580601f1061136a5750611389565b601f016020900490600052602060002090810190611388919061138c565b5b50565b5b808211156113a557600081600090555060010161138d565b5090565b6000604051905090565b600080fd5b600080fd5b6000819050919050565b6113d0816113bd565b81146113db57600080fd5b50565b6000813590506113ed816113c7565b92915050565b600080fd5b600080fd5b6000601f19601f8301169050919050565b7f4e487b7100000000000000000000000000000000000000000000000000000000600052604160045260246000fd5b611446826113fd565b810181811067ffffffffffffffff821117156114655761146461140e565b5b80604052505050565b60006114786113a9565b9050611484828261143d565b919050565b600067ffffffffffffffff8211156114a4576114a361140e565b5b6114ad826113fd565b9050602081019050919050565b82818337600083830152505050565b60006114dc6114d784611489565b61146e565b9050828152602081018484840111156114f8576114f76113f8565b5b6115038482856114ba565b509392505050565b600082601f8301126115205761151f6113f3565b5b81356115308482602086016114c9565b91505092915050565b600080604083850312156115505761154f6113b3565b5b600061155e858286016113de565b925050602083013567ffffffffffffffff81111561157f5761157e6113b8565b5b61158b8582860161150b565b9150509250929050565b6000602082840312156115ab576115aa6113b3565b5b60006115b9848285016113de565b91505092915050565b6115cb816113bd565b82525050565b7f4e487b7100000000000000000000000000000000000000000000000000000000600052602160045260246000fd5b60058110611611576116106115d1565b5b50565b600081905061162282611600565b919050565b600061163282611614565b9050919050565b61164281611627565b82525050565b600081519050919050565b600082825260208201905092915050565b60005b83811015611682578082015181840152602081019050611667565b60008484015250505050565b600061169982611648565b6116a38185611653565b93506116b3818560208601611664565b6116bc816113fd565b840191505092915050565b60006060820190506116dc60008301866115c2565b6116e96020830185611639565b81810360408301526116fb818461168e565b9050949350505050565b6000602082019050818103600083015261171f818461168e565b905092915050565b6000806040838503121561173e5761173d6113b3565b5b600083013567ffffffffffffffff81111561175c5761175b6113b8565b5b6117688582860161150b565b925050602083013567ffffffffffffffff811115611789576117886113b8565b5b6117958582860161150b565b9150509250929050565b60008115159050919050565b6117b48161179f565b82525050565b60006020820190506117cf60008301846117ab565b92915050565b600081519050919050565b600082825260208201905092915050565b6000819050602082019050919050565b61180a816113bd565b82525050565b600061181c8383611801565b60208301905092915050565b6000602082019050919050565b6000611840826117d5565b61184a81856117e0565b9350611855836117f1565b8060005b8381101561188657815161186d8882611810565b975061187883611828565b925050600181019050611859565b5085935050505092915050565b600060208201905081810360008301526118ad8184611835565b905092915050565b600081519050919050565b600082825260208201905092915050565b6000819050602082019050919050565b600082825260208201905092915050565b60006118fd82611648565b61190781856118e1565b9350611917818560208601611664565b611920816113fd565b840191505092915050565b600061193783836118f2565b905092915050565b6000602082019050919050565b6000611957826118b5565b61196181856118c0565b935083602082028501611973856118d1565b8060005b858110156119af5784840389528151611990858261192b565b945061199b8361193f565b925060208a01995050600181019050611977565b50829750879550505050505092915050565b600060208201905081810360008301526119db818461194c565b905092915050565b60006080820190506119f860008301876115c2565b611a056020830186611639565b8181036040830152611a17818561168e565b9050611a2660608301846115c2565b95945050505050565b600067ffffffffffffffff821115611a4a57611a4961140e565b5b602082029050602081019050919050565b600080fd5b6000611a73611a6e84611a2f565b61146e565b90508083825260208201905060208402830185811115611a9657611a95611a5b565b5b835b81811015611add57803567ffffffffffffffff811115611abb57611aba6113f3565b5b808601611ac8898261150b565b85526020850194505050602081019050611a98565b5050509392505050565b600082601f830112611afc57611afb6113f3565b5b8135611b0c848260208601611a60565b91505092915050565b600060208284031215611b2b57611b2a6113b3565b5b600082013567ffffffffffffffff811115611b4957611b486113b8565b5b611b5584828501611ae7565b91505092915050565b6000602082019050611b7360008301846115c2565b92915050565b600060208284031215611b8f57611b8e6113b3565b5b600082013567ffffffffffffffff811115611bad57611bac6113b8565b5b611bb98482850161150b565b91505092915050565b7f4e487b7100000000000000000000000000000000000000000000000000000000600052603260045260246000fd5b7f566f74696e6720697320616c72656164792066696e6973686564000000000000600082015250565b6000611c27601a83611653565b9150611c3282611bf1565b602082019050919050565b60006020820190508181036000830152611c5681611c1a565b9050919050565b600081905092915050565b6000611c7382611648565b611c7d8185611c5d565b9350611c8d818560208601611664565b80840191505092915050565b6000611ca58284611c68565b915081905092915050565b7f4e487b7100000000000000000000000000000000000000000000000000000000600052601160045260246000fd5b6000611cea826113bd565b9150611cf5836113bd565b9250828201905080821115611d0d57611d0c611cb0565b5b92915050565b7f4e487b7100000000000000000000000000000000000000000000000000000000600052602260045260246000fd5b60006002820490506001821680611d5a57607f821691505b602082108103611d6d57611d6c611d13565b5b50919050565b60008190508160005260206000209050919050565b60006020601f8301049050919050565b600082821b905092915050565b600060088302611dd57fffffffffffffffffffffffffffffffffffffffffffffffffffffffffffffffff82611d98565b611ddf8683611d98565b95508019841693508086168417925050509392505050565b6000819050919050565b6000611e1c611e17611e12846113bd565b611df7565b6113bd565b9050919050565b6000819050919050565b611e3683611e01565b611e4a611e4282611e23565b848454611da5565b825550505050565b600090565b611e5f611e52565b611e6a818484611e2d565b505050565b5b81811015611e8e57611e83600082611e57565b600181019050611e70565b5050565b601f821115611ed357611ea481611d73565b611ead84611d88565b81016020851015611ebc578190505b611ed0611ec885611d88565b830182611e6f565b50505b505050565b600082821c905092915050565b6000611ef660001984600802611ed8565b1980831691505092915050565b6000611f0f8383611ee5565b9150826002028217905092915050565b611f2882611648565b67ffffffffffffffff811115611f4157611f4061140e565b5b611f4b8254611d42565b611f56828285611e92565b600060209050601f831160018114611f895760008415611f77578287015190505b611f818582611f03565b865550611fe9565b601f198416611f9786611d73565b60005b82811015611fbf57848901518255600182019150602085019450602081019050611f9a565b86831015611fdc5784890151611fd8601f891682611ee5565b8355505b6001600288020188555050505b505050505050565b7f566f74696e67206973206e6f742066696e697368656420796574000000000000600082015250565b6000612027601a83611653565b915061203282611ff1565b602082019050919050565b600060208201905081810360008301526120568161201a565b9050919050565b6000612068826113bd565b91507fffffffffffffffffffffffffffffffffffffffffffffffffffffffffffffffff820361209a57612099611cb0565b5b600182019050919050565b7f43616e27742066696e69736820766f74696e672062656361757365206e6f206f60008201527f6e6520766f746564207965740000000000000000000000000000000000000000602082015250565b6000612101602c83611653565b915061210c826120a5565b604082019050919050565b60006020820190508181036000830152612130816120f4565b9050919050565b7f50726f706f73616c732061727261792063616e277420626520656d7074790000600082015250565b600061216d601e83611653565b915061217882612137565b602082019050919050565b6000602082019050818103600083015261219c81612160565b905091905056fea264697066735822122065c541948d8388368d1b7553ee459047f09a52df3841713886762943cf7c09fd64736f6c63430008120033",
  "linkReferences": {},
  "deployedLinkReferences": {}
}