{
  "_format": "hh-sol-artifact-1",
  "contractName": "VotingEngine",
  "sourceName": "contracts/VotingEngine.sol",
  "abi": [
    {
      "inputs": [
        {
          "internalType": "uint256[]",
          "name": "proposalIds",
          "type": "uint256[]"
        }
      ],
      "name": "createVoting",
      "outputs": [
        {
          "internalType": "uint256",
          "name": "_id",
          "type": "uint256"
        }
      ],
      "stateMutability": "payable",
      "type": "function"
    },
    {
      "inputs": [
        {
          "internalType": "uint256",
          "name": "idVoting",
          "type": "uint256"
        }
      ],
      "name": "endVoting",
      "outputs": [],
      "stateMutability": "payable",
      "type": "function"
    },
    {
      "inputs": [
        {
          "internalType": "uint256",
          "name": "idVoting",
          "type": "uint256"
        }
      ],
      "name": "getProposalIds",
      "outputs": [
        {
          "internalType": "uint256[]",
          "name": "",
          "type": "uint256[]"
        }
      ],
      "stateMutability": "view",
      "type": "function"
    },
    {
      "inputs": [
        {
          "internalType": "uint256",
          "name": "idVoting",
          "type": "uint256"
        }
      ],
      "name": "getVotingInfo",
      "outputs": [
        {
          "internalType": "uint256",
          "name": "",
          "type": "uint256"
        },
        {
          "internalType": "enum VotingEngine.VotingState",
          "name": "",
          "type": "uint8"
        },
        {
          "internalType": "int256",
          "name": "",
          "type": "int256"
        }
      ],
      "stateMutability": "view",
      "type": "function"
    },
    {
      "inputs": [],
      "name": "getVotingsList",
      "outputs": [
        {
          "internalType": "uint256[]",
          "name": "",
          "type": "uint256[]"
        }
      ],
      "stateMutability": "view",
      "type": "function"
    },
    {
      "inputs": [
        {
          "internalType": "uint256",
          "name": "idVoting",
          "type": "uint256"
        }
      ],
      "name": "getWinningProposal",
      "outputs": [
        {
          "internalType": "int256",
          "name": "",
          "type": "int256"
        }
      ],
      "stateMutability": "view",
      "type": "function"
    },
    {
      "inputs": [
        {
          "internalType": "uint256",
          "name": "votingId",
          "type": "uint256"
        },
        {
          "internalType": "uint256",
          "name": "proposalId",
          "type": "uint256"
        }
      ],
      "name": "vote",
      "outputs": [],
      "stateMutability": "payable",
      "type": "function"
    },
    {
      "inputs": [
        {
          "internalType": "uint256",
          "name": "",
          "type": "uint256"
        }
      ],
      "name": "voteCountByProposal",
      "outputs": [
        {
          "internalType": "uint256",
          "name": "",
          "type": "uint256"
        }
      ],
      "stateMutability": "view",
      "type": "function"
    },
    {
      "inputs": [
        {
          "internalType": "uint256",
          "name": "",
          "type": "uint256"
        }
      ],
      "name": "votings",
      "outputs": [
        {
          "internalType": "uint256",
          "name": "votingId",
          "type": "uint256"
        },
        {
          "internalType": "enum VotingEngine.VotingState",
          "name": "state",
          "type": "uint8"
        },
        {
          "internalType": "int256",
          "name": "winningProposal",
          "type": "int256"
        },
        {
          "internalType": "uint256",
          "name": "winningVoteCount",
          "type": "uint256"
        }
      ],
      "stateMutability": "view",
      "type": "function"
    },
    {
      "inputs": [],
      "name": "votingsNumber",
      "outputs": [
        {
          "internalType": "uint256",
          "name": "",
          "type": "uint256"
        }
      ],
      "stateMutability": "view",
      "type": "function"
    }
  ],
  "bytecode": "0x608060405234801561001057600080fd5b506114ba806100206000396000f3fe6080604052600436106100915760003560e01c80639a78a73a116100595780639a78a73a14610196578063a598d03c146101d3578063b384abef14610213578063f2745ab11461022f578063f301f1041461025a57610091565b8063248a063414610096578063292ca166146100d557806341a02a2f14610112578063524dbe8c1461014f578063649f89a51461017a575b600080fd5b3480156100a257600080fd5b506100bd60048036038101906100b89190610d83565b61028a565b6040516100cc93929190610e4f565b60405180910390f35b3480156100e157600080fd5b506100fc60048036038101906100f79190610d83565b61039f565b6040516101099190610e86565b60405180910390f35b34801561011e57600080fd5b5061013960048036038101906101349190610d83565b61052c565b6040516101469190610ea1565b60405180910390f35b34801561015b57600080fd5b50610164610544565b6040516101719190610f7a565b60405180910390f35b610194600480360381019061018f9190610d83565b6106ca565b005b3480156101a257600080fd5b506101bd60048036038101906101b89190610d83565b6107f7565b6040516101ca9190610f7a565b60405180910390f35b3480156101df57600080fd5b506101fa60048036038101906101f59190610d83565b6108ee565b60405161020a9493929190610f9c565b60405180910390f35b61022d60048036038101906102289190610fe1565b61093b565b005b34801561023b57600080fd5b50610244610b15565b6040516102519190610ea1565b60405180910390f35b610274600480360381019061026f919061117a565b610b1b565b6040516102819190610ea1565b60405180910390f35b600080600080600185815481106102a4576102a36111c3565b5b90600052602060002090600502016040518060a0016040529081600082015481526020016001820180548060200260200160405190810160405280929190818152602001828054801561031657602002820191906000526020600020905b815481526020019060010190808311610302575b505050505081526020016002820160009054906101000a900460ff16600481111561034457610343610dbf565b5b600481111561035657610355610dbf565b5b8152602001600382015481526020016004820154815250509050600081600001519050600082604001519050600083606001519050828282965096509650505050509193909250565b600080600183815481106103b6576103b56111c3565b5b90600052602060002090600502016040518060a0016040529081600082015481526020016001820180548060200260200160405190810160405280929190818152602001828054801561042857602002820191906000526020600020905b815481526020019060010190808311610414575b505050505081526020016002820160009054906101000a900460ff16600481111561045657610455610dbf565b5b600481111561046857610467610dbf565b5b81526020016003820154815260200160048201548152505090506003600481111561049657610495610dbf565b5b816040015160048111156104ad576104ac610dbf565b5b14806104e057506004808111156104c7576104c6610dbf565b5b816040015160048111156104de576104dd610dbf565b5b145b61051f576040517f08c379a00000000000000000000000000000000000000000000000000000000081526004016105169061124f565b60405180910390fd5b8060600151915050919050565b60026020528060005260406000206000915090505481565b6060600060018054905067ffffffffffffffff81111561056757610566611037565b5b6040519080825280602002602001820160405280156105955781602001602082028036833780820191505090505b50905060005b6001805490508110156106c2576000600182815481106105be576105bd6111c3565b5b90600052602060002090600502016040518060a0016040529081600082015481526020016001820180548060200260200160405190810160405280929190818152602001828054801561063057602002820191906000526020600020905b81548152602001906001019080831161061c575b505050505081526020016002820160009054906101000a900460ff16600481111561065e5761065d610dbf565b5b60048111156106705761066f610dbf565b5b815260200160038201548152602001600482015481525050905080600001518383815181106106a2576106a16111c3565b5b6020026020010181815250505080806106ba9061129e565b91505061059b565b508091505090565b6000600182815481106106e0576106df6111c3565b5b906000526020600020906005020190506000600481111561070457610703610dbf565b5b8160020160009054906101000a900460ff16600481111561072857610727610dbf565b5b03610768576040517f08c379a000000000000000000000000000000000000000000000000000000000815260040161075f90611358565b60405180910390fd5b7fffffffffffffffffffffffffffffffffffffffffffffffffffffffffffffffff8160030154146107c55760038160020160006101000a81548160ff021916908360048111156107bb576107ba610dbf565b5b02179055506107f3565b60048160020160006101000a81548160ff021916908360048111156107ed576107ec610dbf565b5b02179055505b5050565b606060006001838154811061080f5761080e6111c3565b5b90600052602060002090600502016040518060a0016040529081600082015481526020016001820180548060200260200160405190810160405280929190818152602001828054801561088157602002820191906000526020600020905b81548152602001906001019080831161086d575b505050505081526020016002820160009054906101000a900460ff1660048111156108af576108ae610dbf565b5b60048111156108c1576108c0610dbf565b5b81526020016003820154815260200160048201548152505090506000816020015190508092505050919050565b600181815481106108fe57600080fd5b90600052602060002090600502016000915090508060000154908060020160009054906101000a900460ff16908060030154908060040154905084565b600060018381548110610951576109506111c3565b5b906000526020600020906005020190506003600481111561097557610974610dbf565b5b8160020160009054906101000a900460ff16600481111561099957610998610dbf565b5b1415806109db57506004808111156109b4576109b3610dbf565b5b8160020160009054906101000a900460ff1660048111156109d8576109d7610dbf565b5b14155b610a1a576040517f08c379a0000000000000000000000000000000000000000000000000000000008152600401610a11906113c4565b60405180910390fd5b6000600260008481526020019081526020016000205490506000600182610a4191906113e4565b90508060026000868152602001908152602001600020819055508260040154811115610aab5783836003018190555080836004018190555060018360020160006101000a81548160ff02191690836004811115610aa157610aa0610dbf565b5b0217905550610b0e565b82600401548103610b0d577fffffffffffffffffffffffffffffffffffffffffffffffffffffffffffffffff836003018190555060028360020160006101000a81548160ff02191690836004811115610b0757610b06610dbf565b5b02179055505b5b5050505050565b60005481565b600080825111610b60576040517f08c379a0000000000000000000000000000000000000000000000000000000008152600401610b5790611464565b60405180910390fd5b6000806000815480929190610b749061129e565b91905055905060016040518060a0016040528083815260200185815260200160006004811115610ba757610ba6610dbf565b5b81526020017fffffffffffffffffffffffffffffffffffffffffffffffffffffffffffffffff815260200160008152509080600181540180825580915050600190039060005260206000209060050201600090919091909150600082015181600001556020820151816001019080519060200190610c26929190610ccf565b5060408201518160020160006101000a81548160ff02191690836004811115610c5257610c51610dbf565b5b02179055506060820151816003015560808201518160040155505060005b8351811015610cc5576000848281518110610c8e57610c8d6111c3565b5b6020026020010151905060006002600083815260200190815260200160002081905550508080610cbd9061129e565b915050610c70565b5080915050919050565b828054828255906000526020600020908101928215610d0b579160200282015b82811115610d0a578251825591602001919060010190610cef565b5b509050610d189190610d1c565b5090565b5b80821115610d35576000816000905550600101610d1d565b5090565b6000604051905090565b600080fd5b600080fd5b6000819050919050565b610d6081610d4d565b8114610d6b57600080fd5b50565b600081359050610d7d81610d57565b92915050565b600060208284031215610d9957610d98610d43565b5b6000610da784828501610d6e565b91505092915050565b610db981610d4d565b82525050565b7f4e487b7100000000000000000000000000000000000000000000000000000000600052602160045260246000fd5b60058110610dff57610dfe610dbf565b5b50565b6000819050610e1082610dee565b919050565b6000610e2082610e02565b9050919050565b610e3081610e15565b82525050565b6000819050919050565b610e4981610e36565b82525050565b6000606082019050610e646000830186610db0565b610e716020830185610e27565b610e7e6040830184610e40565b949350505050565b6000602082019050610e9b6000830184610e40565b92915050565b6000602082019050610eb66000830184610db0565b92915050565b600081519050919050565b600082825260208201905092915050565b6000819050602082019050919050565b610ef181610d4d565b82525050565b6000610f038383610ee8565b60208301905092915050565b6000602082019050919050565b6000610f2782610ebc565b610f318185610ec7565b9350610f3c83610ed8565b8060005b83811015610f6d578151610f548882610ef7565b9750610f5f83610f0f565b925050600181019050610f40565b5085935050505092915050565b60006020820190508181036000830152610f948184610f1c565b905092915050565b6000608082019050610fb16000830187610db0565b610fbe6020830186610e27565b610fcb6040830185610e40565b610fd86060830184610db0565b95945050505050565b60008060408385031215610ff857610ff7610d43565b5b600061100685828601610d6e565b925050602061101785828601610d6e565b9150509250929050565b600080fd5b6000601f19601f8301169050919050565b7f4e487b7100000000000000000000000000000000000000000000000000000000600052604160045260246000fd5b61106f82611026565b810181811067ffffffffffffffff8211171561108e5761108d611037565b5b80604052505050565b60006110a1610d39565b90506110ad8282611066565b919050565b600067ffffffffffffffff8211156110cd576110cc611037565b5b602082029050602081019050919050565b600080fd5b60006110f66110f1846110b2565b611097565b90508083825260208201905060208402830185811115611119576111186110de565b5b835b81811015611142578061112e8882610d6e565b84526020840193505060208101905061111b565b5050509392505050565b600082601f83011261116157611160611021565b5b81356111718482602086016110e3565b91505092915050565b6000602082840312156111905761118f610d43565b5b600082013567ffffffffffffffff8111156111ae576111ad610d48565b5b6111ba8482850161114c565b91505092915050565b7f4e487b7100000000000000000000000000000000000000000000000000000000600052603260045260246000fd5b600082825260208201905092915050565b7f566f74696e67206973206e6f742066696e697368656420796574000000000000600082015250565b6000611239601a836111f2565b915061124482611203565b602082019050919050565b600060208201905081810360008301526112688161122c565b9050919050565b7f4e487b7100000000000000000000000000000000000000000000000000000000600052601160045260246000fd5b60006112a982610d4d565b91507fffffffffffffffffffffffffffffffffffffffffffffffffffffffffffffffff82036112db576112da61126f565b5b600182019050919050565b7f43616e27742066696e69736820766f74696e672062656361757365206e6f206f60008201527f6e6520766f746564207965740000000000000000000000000000000000000000602082015250565b6000611342602c836111f2565b915061134d826112e6565b604082019050919050565b6000602082019050818103600083015261137181611335565b9050919050565b7f566f74696e6720697320616c72656164792066696e6973686564000000000000600082015250565b60006113ae601a836111f2565b91506113b982611378565b602082019050919050565b600060208201905081810360008301526113dd816113a1565b9050919050565b60006113ef82610d4d565b91506113fa83610d4d565b92508282019050808211156114125761141161126f565b5b92915050565b7f50726f706f73616c732061727261792063616e277420626520656d7074790000600082015250565b600061144e601e836111f2565b915061145982611418565b602082019050919050565b6000602082019050818103600083015261147d81611441565b905091905056fea264697066735822122019aa09bb4b09053ead038bb628623fd58a51ed4071023b910c3e6e15597d77ee64736f6c63430008120033",
  "linkReferences": {},
  "deployedLinkReferences": {}
}