{
  "_format": "hh-sol-artifact-1",
  "contractName": "VotingEngine",
  "sourceName": "contracts/VotingEngine.sol",
  "abi": [
    {
      "inputs": [
        {
          "internalType": "string",
          "name": "str1",
          "type": "string"
        },
        {
          "internalType": "string",
          "name": "str2",
          "type": "string"
        }
      ],
      "name": "compare",
      "outputs": [
        {
          "internalType": "bool",
          "name": "",
          "type": "bool"
        }
      ],
      "stateMutability": "pure",
      "type": "function"
    },
    {
      "inputs": [
        {
          "internalType": "string[]",
          "name": "proposalIds",
          "type": "string[]"
        }
      ],
      "name": "createVoting",
      "outputs": [
        {
          "internalType": "uint256",
          "name": "_id",
          "type": "uint256"
        }
      ],
      "stateMutability": "payable",
      "type": "function"
    },
    {
      "inputs": [
        {
          "internalType": "uint256",
          "name": "idVoting",
          "type": "uint256"
        }
      ],
      "name": "endVoting",
      "outputs": [],
      "stateMutability": "payable",
      "type": "function"
    },
    {
      "inputs": [],
      "name": "getLastAddedVotingId",
      "outputs": [
        {
          "internalType": "uint256",
          "name": "",
          "type": "uint256"
        }
      ],
      "stateMutability": "view",
      "type": "function"
    },
    {
      "inputs": [
        {
          "internalType": "uint256",
          "name": "idVoting",
          "type": "uint256"
        }
      ],
      "name": "getProposalIds",
      "outputs": [
        {
          "internalType": "string[]",
          "name": "",
          "type": "string[]"
        }
      ],
      "stateMutability": "view",
      "type": "function"
    },
    {
      "inputs": [
        {
          "internalType": "uint256",
          "name": "id",
          "type": "uint256"
        }
      ],
      "name": "getVotingInfo",
      "outputs": [
        {
          "internalType": "uint256",
          "name": "",
          "type": "uint256"
        },
        {
          "internalType": "enum VotingEngine.VotingState",
          "name": "",
          "type": "uint8"
        },
        {
          "internalType": "string",
          "name": "",
          "type": "string"
        }
      ],
      "stateMutability": "view",
      "type": "function"
    },
    {
      "inputs": [],
      "name": "getVotingsList",
      "outputs": [
        {
          "internalType": "uint256[]",
          "name": "",
          "type": "uint256[]"
        }
      ],
      "stateMutability": "view",
      "type": "function"
    },
    {
      "inputs": [
        {
          "internalType": "uint256",
          "name": "idVoting",
          "type": "uint256"
        }
      ],
      "name": "getWinningProposal",
      "outputs": [
        {
          "internalType": "string",
          "name": "",
          "type": "string"
        }
      ],
      "stateMutability": "view",
      "type": "function"
    },
    {
      "inputs": [
        {
          "internalType": "uint256",
          "name": "votingId",
          "type": "uint256"
        },
        {
          "internalType": "string",
          "name": "proposalId",
          "type": "string"
        }
      ],
      "name": "vote",
      "outputs": [],
      "stateMutability": "payable",
      "type": "function"
    },
    {
      "inputs": [
        {
          "internalType": "string",
          "name": "",
          "type": "string"
        }
      ],
      "name": "voteCountByProposal",
      "outputs": [
        {
          "internalType": "uint256",
          "name": "",
          "type": "uint256"
        }
      ],
      "stateMutability": "view",
      "type": "function"
    },
    {
      "inputs": [
        {
          "internalType": "uint256",
          "name": "",
          "type": "uint256"
        }
      ],
      "name": "votings",
      "outputs": [
        {
          "internalType": "uint256",
          "name": "votingId",
          "type": "uint256"
        },
        {
          "internalType": "enum VotingEngine.VotingState",
          "name": "state",
          "type": "uint8"
        },
        {
          "internalType": "string",
          "name": "winningProposal",
          "type": "string"
        },
        {
          "internalType": "uint256",
          "name": "winningVoteCount",
          "type": "uint256"
        }
      ],
      "stateMutability": "view",
      "type": "function"
    },
    {
      "inputs": [],
      "name": "votingsNumber",
      "outputs": [
        {
          "internalType": "uint256",
          "name": "",
          "type": "uint256"
        }
      ],
      "stateMutability": "view",
      "type": "function"
    }
  ],
  "bytecode": "0x608060405234801561001057600080fd5b50612449806100206000396000f3fe6080604052600436106100a75760003560e01c80639a78a73a116100645780639a78a73a146101c85780639f78888c14610205578063a598d03c14610230578063ba53804314610270578063bba2aac1146102a0578063f2745ab1146102dd576100a7565b806324108475146100ac578063248a0634146100c8578063292ca166146101075780633a96fdd714610144578063524dbe8c14610181578063649f89a5146101ac575b600080fd5b6100c660048036038101906100c19190611775565b610308565b005b3480156100d457600080fd5b506100ef60048036038101906100ea91906117d1565b6104f9565b6040516100fe93929190611903565b60405180910390f35b34801561011357600080fd5b5061012e600480360381019061012991906117d1565b610718565b60405161013b9190611941565b60405180910390f35b34801561015057600080fd5b5061016b60048036038101906101669190611963565b6109af565b60405161017891906119f6565b60405180910390f35b34801561018d57600080fd5b50610196610a08565b6040516101a39190611acf565b60405180910390f35b6101c660048036038101906101c191906117d1565b610c97565b005b3480156101d457600080fd5b506101ef60048036038101906101ea91906117d1565b610e42565b6040516101fc9190611bfd565b60405180910390f35b34801561021157600080fd5b5061021a611042565b6040516102279190611c1f565b60405180910390f35b34801561023c57600080fd5b50610257600480360381019061025291906117d1565b611248565b6040516102679493929190611c3a565b60405180910390f35b61028a60048036038101906102859190611d6c565b61131d565b6040516102979190611c1f565b60405180910390f35b3480156102ac57600080fd5b506102c760048036038101906102c29190611db5565b6114d7565b6040516102d49190611c1f565b60405180910390f35b3480156102e957600080fd5b506102f2611505565b6040516102ff9190611c1f565b60405180910390f35b60006001838154811061031e5761031d611dfe565b5b90600052602060002090600502019050600360048111156103425761034161180d565b5b8160020160009054906101000a900460ff1660048111156103665761036561180d565b5b1415806103a857506004808111156103815761038061180d565b5b8160020160009054906101000a900460ff1660048111156103a5576103a461180d565b5b14155b6103e7576040517f08c379a00000000000000000000000000000000000000000000000000000000081526004016103de90611e79565b60405180910390fd5b60006002836040516103f99190611ed5565b908152602001604051809103902054905060006001826104199190611f1b565b90508060028560405161042c9190611ed5565b9081526020016040518091039020819055508260040154811115610497578383600301908161045b919061215b565b5080836004018190555060018360020160006101000a81548160ff0219169083600481111561048d5761048c61180d565b5b02179055506104f2565b826004015481036104f157604051806020016040528060008152508360030190816104c2919061215b565b5060028360020160006101000a81548160ff021916908360048111156104eb576104ea61180d565b5b02179055505b5b5050505050565b600080606060006001858154811061051457610513611dfe565b5b90600052602060002090600502016040518060a00160405290816000820154815260200160018201805480602002602001604051908101604052809291908181526020016000905b8282101561060857838290600052602060002001805461057b90611f7e565b80601f01602080910402602001604051908101604052809291908181526020018280546105a790611f7e565b80156105f45780601f106105c9576101008083540402835291602001916105f4565b820191906000526020600020905b8154815290600101906020018083116105d757829003601f168201915b50505050508152602001906001019061055c565b5050505081526020016002820160009054906101000a900460ff1660048111156106355761063461180d565b5b60048111156106475761064661180d565b5b815260200160038201805461065b90611f7e565b80601f016020809104026020016040519081016040528092919081815260200182805461068790611f7e565b80156106d45780601f106106a9576101008083540402835291602001916106d4565b820191906000526020600020905b8154815290600101906020018083116106b757829003601f168201915b505050505081526020016004820154815250509050600081600001519050600082604001519050600083606001519050828282965096509650505050509193909250565b60606000600183815481106107305761072f611dfe565b5b90600052602060002090600502016040518060a00160405290816000820154815260200160018201805480602002602001604051908101604052809291908181526020016000905b8282101561082457838290600052602060002001805461079790611f7e565b80601f01602080910402602001604051908101604052809291908181526020018280546107c390611f7e565b80156108105780601f106107e557610100808354040283529160200191610810565b820191906000526020600020905b8154815290600101906020018083116107f357829003601f168201915b505050505081526020019060010190610778565b5050505081526020016002820160009054906101000a900460ff1660048111156108515761085061180d565b5b60048111156108635761086261180d565b5b815260200160038201805461087790611f7e565b80601f01602080910402602001604051908101604052809291908181526020018280546108a390611f7e565b80156108f05780601f106108c5576101008083540402835291602001916108f0565b820191906000526020600020905b8154815290600101906020018083116108d357829003601f168201915b505050505081526020016004820154815250509050600360048111156109195761091861180d565b5b816040015160048111156109305761092f61180d565b5b1480610963575060048081111561094a5761094961180d565b5b816040015160048111156109615761096061180d565b5b145b6109a2576040517f08c379a000000000000000000000000000000000000000000000000000000000815260040161099990612279565b60405180910390fd5b8060600151915050919050565b6000816040516020016109c29190611ed5565b60405160208183030381529060405280519060200120836040516020016109e99190611ed5565b6040516020818303038152906040528051906020012014905092915050565b6060600060018054905067ffffffffffffffff811115610a2b57610a2a61164a565b5b604051908082528060200260200182016040528015610a595781602001602082028036833780820191505090505b50905060005b600180549050811015610c8f57600060018281548110610a8257610a81611dfe565b5b90600052602060002090600502016040518060a00160405290816000820154815260200160018201805480602002602001604051908101604052809291908181526020016000905b82821015610b76578382906000526020600020018054610ae990611f7e565b80601f0160208091040260200160405190810160405280929190818152602001828054610b1590611f7e565b8015610b625780601f10610b3757610100808354040283529160200191610b62565b820191906000526020600020905b815481529060010190602001808311610b4557829003601f168201915b505050505081526020019060010190610aca565b5050505081526020016002820160009054906101000a900460ff166004811115610ba357610ba261180d565b5b6004811115610bb557610bb461180d565b5b8152602001600382018054610bc990611f7e565b80601f0160208091040260200160405190810160405280929190818152602001828054610bf590611f7e565b8015610c425780601f10610c1757610100808354040283529160200191610c42565b820191906000526020600020905b815481529060010190602001808311610c2557829003601f168201915b5050505050815260200160048201548152505090508060000151838381518110610c6f57610c6e611dfe565b5b602002602001018181525050508080610c8790612299565b915050610a5f565b508091505090565b600060018281548110610cad57610cac611dfe565b5b9060005260206000209060050201905060006004811115610cd157610cd061180d565b5b8160020160009054906101000a900460ff166004811115610cf557610cf461180d565b5b03610d35576040517f08c379a0000000000000000000000000000000000000000000000000000000008152600401610d2c90612353565b60405180910390fd5b610dda816003018054610d4790611f7e565b80601f0160208091040260200160405190810160405280929190818152602001828054610d7390611f7e565b8015610dc05780601f10610d9557610100808354040283529160200191610dc0565b820191906000526020600020905b815481529060010190602001808311610da357829003601f168201915b5050505050604051806020016040528060008152506109af565b610e105760038160020160006101000a81548160ff02191690836004811115610e0657610e0561180d565b5b0217905550610e3e565b60048160020160006101000a81548160ff02191690836004811115610e3857610e3761180d565b5b02179055505b5050565b6060600060018381548110610e5a57610e59611dfe565b5b90600052602060002090600502016040518060a00160405290816000820154815260200160018201805480602002602001604051908101604052809291908181526020016000905b82821015610f4e578382906000526020600020018054610ec190611f7e565b80601f0160208091040260200160405190810160405280929190818152602001828054610eed90611f7e565b8015610f3a5780601f10610f0f57610100808354040283529160200191610f3a565b820191906000526020600020905b815481529060010190602001808311610f1d57829003601f168201915b505050505081526020019060010190610ea2565b5050505081526020016002820160009054906101000a900460ff166004811115610f7b57610f7a61180d565b5b6004811115610f8d57610f8c61180d565b5b8152602001600382018054610fa190611f7e565b80601f0160208091040260200160405190810160405280929190818152602001828054610fcd90611f7e565b801561101a5780601f10610fef5761010080835404028352916020019161101a565b820191906000526020600020905b815481529060010190602001808311610ffd57829003601f168201915b5050505050815260200160048201548152505090506000816020015190508092505050919050565b60008060018080805490506110579190612373565b8154811061106857611067611dfe565b5b90600052602060002090600502016040518060a00160405290816000820154815260200160018201805480602002602001604051908101604052809291908181526020016000905b8282101561115c5783829060005260206000200180546110cf90611f7e565b80601f01602080910402602001604051908101604052809291908181526020018280546110fb90611f7e565b80156111485780601f1061111d57610100808354040283529160200191611148565b820191906000526020600020905b81548152906001019060200180831161112b57829003601f168201915b5050505050815260200190600101906110b0565b5050505081526020016002820160009054906101000a900460ff1660048111156111895761118861180d565b5b600481111561119b5761119a61180d565b5b81526020016003820180546111af90611f7e565b80601f01602080910402602001604051908101604052809291908181526020018280546111db90611f7e565b80156112285780601f106111fd57610100808354040283529160200191611228565b820191906000526020600020905b81548152906001019060200180831161120b57829003601f168201915b505050505081526020016004820154815250509050806000015191505090565b6001818154811061125857600080fd5b90600052602060002090600502016000915090508060000154908060020160009054906101000a900460ff169080600301805461129490611f7e565b80601f01602080910402602001604051908101604052809291908181526020018280546112c090611f7e565b801561130d5780601f106112e25761010080835404028352916020019161130d565b820191906000526020600020905b8154815290600101906020018083116112f057829003601f168201915b5050505050908060040154905084565b600080825111611362576040517f08c379a0000000000000000000000000000000000000000000000000000000008152600401611359906123f3565b60405180910390fd5b600080600081548092919061137690612299565b91905055905060016040518060a00160405280838152602001858152602001600060048111156113a9576113a861180d565b5b81526020016040518060200160405280600081525081526020016000815250908060018154018082558091505060019003906000526020600020906005020160009091909190915060008201518160000155602082015181600101908051906020019061141792919061150b565b5060408201518160020160006101000a81548160ff021916908360048111156114435761144261180d565b5b0217905550606082015181600301908161145d919061215b565b5060808201518160040155505060005b83518110156114cd57600084828151811061148b5761148a611dfe565b5b6020026020010151905060006002826040516114a79190611ed5565b9081526020016040518091039020819055505080806114c590612299565b91505061146d565b5080915050919050565b6002818051602081018201805184825260208301602085012081835280955050505050506000915090505481565b60005481565b828054828255906000526020600020908101928215611553579160200282015b82811115611552578251829081611542919061215b565b509160200191906001019061152b565b5b5090506115609190611564565b5090565b5b80821115611584576000818161157b9190611588565b50600101611565565b5090565b50805461159490611f7e565b6000825580601f106115a657506115c5565b601f0160209004906000526020600020908101906115c491906115c8565b5b50565b5b808211156115e15760008160009055506001016115c9565b5090565b6000604051905090565b600080fd5b600080fd5b6000819050919050565b61160c816115f9565b811461161757600080fd5b50565b60008135905061162981611603565b92915050565b600080fd5b600080fd5b6000601f19601f8301169050919050565b7f4e487b7100000000000000000000000000000000000000000000000000000000600052604160045260246000fd5b61168282611639565b810181811067ffffffffffffffff821117156116a1576116a061164a565b5b80604052505050565b60006116b46115e5565b90506116c08282611679565b919050565b600067ffffffffffffffff8211156116e0576116df61164a565b5b6116e982611639565b9050602081019050919050565b82818337600083830152505050565b6000611718611713846116c5565b6116aa565b90508281526020810184848401111561173457611733611634565b5b61173f8482856116f6565b509392505050565b600082601f83011261175c5761175b61162f565b5b813561176c848260208601611705565b91505092915050565b6000806040838503121561178c5761178b6115ef565b5b600061179a8582860161161a565b925050602083013567ffffffffffffffff8111156117bb576117ba6115f4565b5b6117c785828601611747565b9150509250929050565b6000602082840312156117e7576117e66115ef565b5b60006117f58482850161161a565b91505092915050565b611807816115f9565b82525050565b7f4e487b7100000000000000000000000000000000000000000000000000000000600052602160045260246000fd5b6005811061184d5761184c61180d565b5b50565b600081905061185e8261183c565b919050565b600061186e82611850565b9050919050565b61187e81611863565b82525050565b600081519050919050565b600082825260208201905092915050565b60005b838110156118be5780820151818401526020810190506118a3565b60008484015250505050565b60006118d582611884565b6118df818561188f565b93506118ef8185602086016118a0565b6118f881611639565b840191505092915050565b600060608201905061191860008301866117fe565b6119256020830185611875565b818103604083015261193781846118ca565b9050949350505050565b6000602082019050818103600083015261195b81846118ca565b905092915050565b6000806040838503121561197a576119796115ef565b5b600083013567ffffffffffffffff811115611998576119976115f4565b5b6119a485828601611747565b925050602083013567ffffffffffffffff8111156119c5576119c46115f4565b5b6119d185828601611747565b9150509250929050565b60008115159050919050565b6119f0816119db565b82525050565b6000602082019050611a0b60008301846119e7565b92915050565b600081519050919050565b600082825260208201905092915050565b6000819050602082019050919050565b611a46816115f9565b82525050565b6000611a588383611a3d565b60208301905092915050565b6000602082019050919050565b6000611a7c82611a11565b611a868185611a1c565b9350611a9183611a2d565b8060005b83811015611ac2578151611aa98882611a4c565b9750611ab483611a64565b925050600181019050611a95565b5085935050505092915050565b60006020820190508181036000830152611ae98184611a71565b905092915050565b600081519050919050565b600082825260208201905092915050565b6000819050602082019050919050565b600082825260208201905092915050565b6000611b3982611884565b611b438185611b1d565b9350611b538185602086016118a0565b611b5c81611639565b840191505092915050565b6000611b738383611b2e565b905092915050565b6000602082019050919050565b6000611b9382611af1565b611b9d8185611afc565b935083602082028501611baf85611b0d565b8060005b85811015611beb5784840389528151611bcc8582611b67565b9450611bd783611b7b565b925060208a01995050600181019050611bb3565b50829750879550505050505092915050565b60006020820190508181036000830152611c178184611b88565b905092915050565b6000602082019050611c3460008301846117fe565b92915050565b6000608082019050611c4f60008301876117fe565b611c5c6020830186611875565b8181036040830152611c6e81856118ca565b9050611c7d60608301846117fe565b95945050505050565b600067ffffffffffffffff821115611ca157611ca061164a565b5b602082029050602081019050919050565b600080fd5b6000611cca611cc584611c86565b6116aa565b90508083825260208201905060208402830185811115611ced57611cec611cb2565b5b835b81811015611d3457803567ffffffffffffffff811115611d1257611d1161162f565b5b808601611d1f8982611747565b85526020850194505050602081019050611cef565b5050509392505050565b600082601f830112611d5357611d5261162f565b5b8135611d63848260208601611cb7565b91505092915050565b600060208284031215611d8257611d816115ef565b5b600082013567ffffffffffffffff811115611da057611d9f6115f4565b5b611dac84828501611d3e565b91505092915050565b600060208284031215611dcb57611dca6115ef565b5b600082013567ffffffffffffffff811115611de957611de86115f4565b5b611df584828501611747565b91505092915050565b7f4e487b7100000000000000000000000000000000000000000000000000000000600052603260045260246000fd5b7f566f74696e6720697320616c72656164792066696e6973686564000000000000600082015250565b6000611e63601a8361188f565b9150611e6e82611e2d565b602082019050919050565b60006020820190508181036000830152611e9281611e56565b9050919050565b600081905092915050565b6000611eaf82611884565b611eb98185611e99565b9350611ec98185602086016118a0565b80840191505092915050565b6000611ee18284611ea4565b915081905092915050565b7f4e487b7100000000000000000000000000000000000000000000000000000000600052601160045260246000fd5b6000611f26826115f9565b9150611f31836115f9565b9250828201905080821115611f4957611f48611eec565b5b92915050565b7f4e487b7100000000000000000000000000000000000000000000000000000000600052602260045260246000fd5b60006002820490506001821680611f9657607f821691505b602082108103611fa957611fa8611f4f565b5b50919050565b60008190508160005260206000209050919050565b60006020601f8301049050919050565b600082821b905092915050565b6000600883026120117fffffffffffffffffffffffffffffffffffffffffffffffffffffffffffffffff82611fd4565b61201b8683611fd4565b95508019841693508086168417925050509392505050565b6000819050919050565b600061205861205361204e846115f9565b612033565b6115f9565b9050919050565b6000819050919050565b6120728361203d565b61208661207e8261205f565b848454611fe1565b825550505050565b600090565b61209b61208e565b6120a6818484612069565b505050565b5b818110156120ca576120bf600082612093565b6001810190506120ac565b5050565b601f82111561210f576120e081611faf565b6120e984611fc4565b810160208510156120f8578190505b61210c61210485611fc4565b8301826120ab565b50505b505050565b600082821c905092915050565b600061213260001984600802612114565b1980831691505092915050565b600061214b8383612121565b9150826002028217905092915050565b61216482611884565b67ffffffffffffffff81111561217d5761217c61164a565b5b6121878254611f7e565b6121928282856120ce565b600060209050601f8311600181146121c557600084156121b3578287015190505b6121bd858261213f565b865550612225565b601f1984166121d386611faf565b60005b828110156121fb578489015182556001820191506020850194506020810190506121d6565b868310156122185784890151612214601f891682612121565b8355505b6001600288020188555050505b505050505050565b7f566f74696e67206973206e6f742066696e697368656420796574000000000000600082015250565b6000612263601a8361188f565b915061226e8261222d565b602082019050919050565b6000602082019050818103600083015261229281612256565b9050919050565b60006122a4826115f9565b91507fffffffffffffffffffffffffffffffffffffffffffffffffffffffffffffffff82036122d6576122d5611eec565b5b600182019050919050565b7f43616e27742066696e69736820766f74696e672062656361757365206e6f206f60008201527f6e6520766f746564207965740000000000000000000000000000000000000000602082015250565b600061233d602c8361188f565b9150612348826122e1565b604082019050919050565b6000602082019050818103600083015261236c81612330565b9050919050565b600061237e826115f9565b9150612389836115f9565b92508282039050818111156123a1576123a0611eec565b5b92915050565b7f50726f706f73616c732061727261792063616e277420626520656d7074790000600082015250565b60006123dd601e8361188f565b91506123e8826123a7565b602082019050919050565b6000602082019050818103600083015261240c816123d0565b905091905056fea264697066735822122047f26ff3f9141cac3fbcb27c75c159547d6a9d837175fc7014c92015d441847f64736f6c63430008120033",
  "linkReferences": {},
  "deployedLinkReferences": {}
}